{
  "_format": "hh-sol-artifact-1",
  "contractName": "meddata",
  "sourceName": "contracts/meddata.sol",
  "abi": [
    {
      "inputs": [],
      "stateMutability": "payable",
      "type": "constructor"
    },
    {
      "inputs": [
        {
          "internalType": "string",
          "name": "_title",
          "type": "string"
        },
        {
          "internalType": "string",
          "name": "_description",
          "type": "string"
        },
        {
          "internalType": "string",
          "name": "_imageURI",
          "type": "string"
        },
        {
          "internalType": "string",
          "name": "_password",
          "type": "string"
        }
      ],
      "name": "NewRrecord",
      "outputs": [],
      "stateMutability": "payable",
      "type": "function"
    },
    {
      "inputs": [],
      "name": "getAllRecords",
      "outputs": [
        {
          "components": [
            {
              "internalType": "uint256",
              "name": "id",
              "type": "uint256"
            },
            {
              "internalType": "string",
              "name": "title",
              "type": "string"
            },
            {
              "internalType": "string",
              "name": "description",
              "type": "string"
            },
            {
              "internalType": "bool",
              "name": "islisted",
              "type": "bool"
            },
            {
              "internalType": "string",
              "name": "imageURI",
              "type": "string"
            },
            {
              "internalType": "string",
              "name": "password",
              "type": "string"
            },
            {
              "internalType": "address",
              "name": "owner",
              "type": "address"
            },
            {
              "internalType": "uint256",
              "name": "timestamp",
              "type": "uint256"
            }
          ],
          "internalType": "struct meddata.Record[]",
          "name": "",
          "type": "tuple[]"
        }
      ],
      "stateMutability": "view",
      "type": "function"
    },
    {
      "inputs": [
        {
          "internalType": "uint256",
          "name": "",
          "type": "uint256"
        }
      ],
      "name": "records",
      "outputs": [
        {
          "internalType": "uint256",
          "name": "id",
          "type": "uint256"
        },
        {
          "internalType": "string",
          "name": "title",
          "type": "string"
        },
        {
          "internalType": "string",
          "name": "description",
          "type": "string"
        },
        {
          "internalType": "bool",
          "name": "islisted",
          "type": "bool"
        },
        {
          "internalType": "string",
          "name": "imageURI",
          "type": "string"
        },
        {
          "internalType": "string",
          "name": "password",
          "type": "string"
        },
        {
          "internalType": "address",
          "name": "owner",
          "type": "address"
        },
        {
          "internalType": "uint256",
          "name": "timestamp",
          "type": "uint256"
        }
      ],
      "stateMutability": "view",
      "type": "function"
    },
    {
      "inputs": [],
      "name": "totalRecord",
      "outputs": [
        {
          "internalType": "uint256",
          "name": "",
          "type": "uint256"
        }
      ],
      "stateMutability": "view",
      "type": "function"
    }
  ],
  "bytecode": "0x6080604052611485806100136000396000f3fe60806040526004361061003f5760003560e01c8063344610671461004457806360be0b1114610088578063a7f9fe72146100a4578063ff35700c146100cf575b600080fd5b34801561005057600080fd5b5061006b60048036038101906100669190610a22565b6100fa565b60405161007f989796959493929190610b4a565b60405180910390f35b6100a2600480360381019061009d9190610d19565b61039f565b005b3480156100b057600080fd5b506100b9610511565b6040516100c69190610fee565b60405180910390f35b3480156100db57600080fd5b506100e4610975565b6040516100f19190611010565b60405180910390f35b6001818154811061010a57600080fd5b90600052602060002090600802016000915090508060000154908060010180546101339061105a565b80601f016020809104026020016040519081016040528092919081815260200182805461015f9061105a565b80156101ac5780601f10610181576101008083540402835291602001916101ac565b820191906000526020600020905b81548152906001019060200180831161018f57829003601f168201915b5050505050908060020180546101c19061105a565b80601f01602080910402602001604051908101604052809291908181526020018280546101ed9061105a565b801561023a5780601f1061020f5761010080835404028352916020019161023a565b820191906000526020600020905b81548152906001019060200180831161021d57829003601f168201915b5050505050908060030160009054906101000a900460ff16908060040180546102629061105a565b80601f016020809104026020016040519081016040528092919081815260200182805461028e9061105a565b80156102db5780601f106102b0576101008083540402835291602001916102db565b820191906000526020600020905b8154815290600101906020018083116102be57829003601f168201915b5050505050908060050180546102f09061105a565b80601f016020809104026020016040519081016040528092919081815260200182805461031c9061105a565b80156103695780601f1061033e57610100808354040283529160200191610369565b820191906000526020600020905b81548152906001019060200180831161034c57829003601f168201915b5050505050908060060160009054906101000a900473ffffffffffffffffffffffffffffffffffffffff16908060070154905088565b60016040518061010001604052804281526020018681526020018581526020016001151581526020018481526020018381526020013373ffffffffffffffffffffffffffffffffffffffff16815260200142815250908060018154018082558091505060019003906000526020600020906008020160009091909190915060008201518160000155602082015181600101908161043c9190611237565b5060408201518160020190816104529190611237565b5060608201518160030160006101000a81548160ff02191690831515021790555060808201518160040190816104889190611237565b5060a082015181600501908161049e9190611237565b5060c08201518160060160006101000a81548173ffffffffffffffffffffffffffffffffffffffff021916908373ffffffffffffffffffffffffffffffffffffffff16021790555060e08201518160070155505060016000808282546105049190611338565b9250508190555050505050565b606060006001805490501161055b576040517f08c379a0000000000000000000000000000000000000000000000000000000008152600401610552906113b8565b60405180910390fd5b600060018054905067ffffffffffffffff81111561057c5761057b610bee565b5b6040519080825280602002602001820160405280156105b557816020015b6105a261097b565b81526020019060019003908161059a5790505b50905060005b60018054905081101561096d573373ffffffffffffffffffffffffffffffffffffffff16600182815481106105f3576105f26113d8565b5b906000526020600020906008020160060160009054906101000a900473ffffffffffffffffffffffffffffffffffffffff1673ffffffffffffffffffffffffffffffffffffffff160361095a5760018181548110610654576106536113d8565b5b906000526020600020906008020160405180610100016040529081600082015481526020016001820180546106889061105a565b80601f01602080910402602001604051908101604052809291908181526020018280546106b49061105a565b80156107015780601f106106d657610100808354040283529160200191610701565b820191906000526020600020905b8154815290600101906020018083116106e457829003601f168201915b5050505050815260200160028201805461071a9061105a565b80601f01602080910402602001604051908101604052809291908181526020018280546107469061105a565b80156107935780601f1061076857610100808354040283529160200191610793565b820191906000526020600020905b81548152906001019060200180831161077657829003601f168201915b505050505081526020016003820160009054906101000a900460ff161515151581526020016004820180546107c79061105a565b80601f01602080910402602001604051908101604052809291908181526020018280546107f39061105a565b80156108405780601f1061081557610100808354040283529160200191610840565b820191906000526020600020905b81548152906001019060200180831161082357829003601f168201915b505050505081526020016005820180546108599061105a565b80601f01602080910402602001604051908101604052809291908181526020018280546108859061105a565b80156108d25780601f106108a7576101008083540402835291602001916108d2565b820191906000526020600020905b8154815290600101906020018083116108b557829003601f168201915b505050505081526020016006820160009054906101000a900473ffffffffffffffffffffffffffffffffffffffff1673ffffffffffffffffffffffffffffffffffffffff1673ffffffffffffffffffffffffffffffffffffffff16815260200160078201548152505082828151811061094e5761094d6113d8565b5b60200260200101819052505b808061096590611407565b9150506105bb565b508091505090565b60005481565b6040518061010001604052806000815260200160608152602001606081526020016000151581526020016060815260200160608152602001600073ffffffffffffffffffffffffffffffffffffffff168152602001600081525090565b6000604051905090565b600080fd5b600080fd5b6000819050919050565b6109ff816109ec565b8114610a0a57600080fd5b50565b600081359050610a1c816109f6565b92915050565b600060208284031215610a3857610a376109e2565b5b6000610a4684828501610a0d565b91505092915050565b610a58816109ec565b82525050565b600081519050919050565b600082825260208201905092915050565b60005b83811015610a98578082015181840152602081019050610a7d565b60008484015250505050565b6000601f19601f8301169050919050565b6000610ac082610a5e565b610aca8185610a69565b9350610ada818560208601610a7a565b610ae381610aa4565b840191505092915050565b60008115159050919050565b610b0381610aee565b82525050565b600073ffffffffffffffffffffffffffffffffffffffff82169050919050565b6000610b3482610b09565b9050919050565b610b4481610b29565b82525050565b600061010082019050610b60600083018b610a4f565b8181036020830152610b72818a610ab5565b90508181036040830152610b868189610ab5565b9050610b956060830188610afa565b8181036080830152610ba78187610ab5565b905081810360a0830152610bbb8186610ab5565b9050610bca60c0830185610b3b565b610bd760e0830184610a4f565b9998505050505050505050565b600080fd5b600080fd5b7f4e487b7100000000000000000000000000000000000000000000000000000000600052604160045260246000fd5b610c2682610aa4565b810181811067ffffffffffffffff82111715610c4557610c44610bee565b5b80604052505050565b6000610c586109d8565b9050610c648282610c1d565b919050565b600067ffffffffffffffff821115610c8457610c83610bee565b5b610c8d82610aa4565b9050602081019050919050565b82818337600083830152505050565b6000610cbc610cb784610c69565b610c4e565b905082815260208101848484011115610cd857610cd7610be9565b5b610ce3848285610c9a565b509392505050565b600082601f830112610d0057610cff610be4565b5b8135610d10848260208601610ca9565b91505092915050565b60008060008060808587031215610d3357610d326109e2565b5b600085013567ffffffffffffffff811115610d5157610d506109e7565b5b610d5d87828801610ceb565b945050602085013567ffffffffffffffff811115610d7e57610d7d6109e7565b5b610d8a87828801610ceb565b935050604085013567ffffffffffffffff811115610dab57610daa6109e7565b5b610db787828801610ceb565b925050606085013567ffffffffffffffff811115610dd857610dd76109e7565b5b610de487828801610ceb565b91505092959194509250565b600081519050919050565b600082825260208201905092915050565b6000819050602082019050919050565b610e25816109ec565b82525050565b600082825260208201905092915050565b6000610e4782610a5e565b610e518185610e2b565b9350610e61818560208601610a7a565b610e6a81610aa4565b840191505092915050565b610e7e81610aee565b82525050565b610e8d81610b29565b82525050565b600061010083016000830151610eac6000860182610e1c565b5060208301518482036020860152610ec48282610e3c565b91505060408301518482036040860152610ede8282610e3c565b9150506060830151610ef36060860182610e75565b5060808301518482036080860152610f0b8282610e3c565b91505060a083015184820360a0860152610f258282610e3c565b91505060c0830151610f3a60c0860182610e84565b5060e0830151610f4d60e0860182610e1c565b508091505092915050565b6000610f648383610e93565b905092915050565b6000602082019050919050565b6000610f8482610df0565b610f8e8185610dfb565b935083602082028501610fa085610e0c565b8060005b85811015610fdc5784840389528151610fbd8582610f58565b9450610fc883610f6c565b925060208a01995050600181019050610fa4565b50829750879550505050505092915050565b600060208201905081810360008301526110088184610f79565b905092915050565b60006020820190506110256000830184610a4f565b92915050565b7f4e487b7100000000000000000000000000000000000000000000000000000000600052602260045260246000fd5b6000600282049050600182168061107257607f821691505b6020821081036110855761108461102b565b5b50919050565b60008190508160005260206000209050919050565b60006020601f8301049050919050565b600082821b905092915050565b6000600883026110ed7fffffffffffffffffffffffffffffffffffffffffffffffffffffffffffffffff826110b0565b6110f786836110b0565b95508019841693508086168417925050509392505050565b6000819050919050565b600061113461112f61112a846109ec565b61110f565b6109ec565b9050919050565b6000819050919050565b61114e83611119565b61116261115a8261113b565b8484546110bd565b825550505050565b600090565b61117761116a565b611182818484611145565b505050565b5b818110156111a65761119b60008261116f565b600181019050611188565b5050565b601f8211156111eb576111bc8161108b565b6111c5846110a0565b810160208510156111d4578190505b6111e86111e0856110a0565b830182611187565b50505b505050565b600082821c905092915050565b600061120e600019846008026111f0565b1980831691505092915050565b600061122783836111fd565b9150826002028217905092915050565b61124082610a5e565b67ffffffffffffffff81111561125957611258610bee565b5b611263825461105a565b61126e8282856111aa565b600060209050601f8311600181146112a1576000841561128f578287015190505b611299858261121b565b865550611301565b601f1984166112af8661108b565b60005b828110156112d7578489015182556001820191506020850194506020810190506112b2565b868310156112f457848901516112f0601f8916826111fd565b8355505b6001600288020188555050505b505050505050565b7f4e487b7100000000000000000000000000000000000000000000000000000000600052601160045260246000fd5b6000611343826109ec565b915061134e836109ec565b925082820190508082111561136657611365611309565b5b92915050565b7f6e6f207265636f72647300000000000000000000000000000000000000000000600082015250565b60006113a2600a83610a69565b91506113ad8261136c565b602082019050919050565b600060208201905081810360008301526113d181611395565b9050919050565b7f4e487b7100000000000000000000000000000000000000000000000000000000600052603260045260246000fd5b6000611412826109ec565b91507fffffffffffffffffffffffffffffffffffffffffffffffffffffffffffffffff820361144457611443611309565b5b60018201905091905056fea2646970667358221220d10466a5d7d1e40e77745679301b912ab1fb1a7fa2139eac74b5a56282d2dd3b64736f6c63430008110033",
  "linkReferences": {},
  "deployedLinkReferences": {}
}